{
  "_format": "hh3-artifact-1",
  "contractName": "CosmeticAuthentication",
  "sourceName": "contracts/CosmeticAuthentication.sol",
  "abi": [
    {
      "inputs": [],
      "stateMutability": "nonpayable",
      "type": "constructor"
    },
    {
      "anonymous": false,
      "inputs": [
        {
          "indexed": false,
          "internalType": "address",
          "name": "manufacturer",
          "type": "address"
        }
      ],
      "name": "ManufacturerAuthorized",
      "type": "event"
    },
    {
      "anonymous": false,
      "inputs": [
        {
          "indexed": false,
          "internalType": "address",
          "name": "manufacturer",
          "type": "address"
        }
      ],
      "name": "ManufacturerRevoked",
      "type": "event"
    },
    {
      "anonymous": false,
      "inputs": [
        {
          "indexed": true,
          "internalType": "string",
          "name": "productId",
          "type": "string"
        },
        {
          "indexed": false,
          "internalType": "string",
          "name": "productName",
          "type": "string"
        },
        {
          "indexed": false,
          "internalType": "string",
          "name": "brand",
          "type": "string"
        },
        {
          "indexed": false,
          "internalType": "address",
          "name": "manufacturer",
          "type": "address"
        }
      ],
      "name": "ProductRegistered",
      "type": "event"
    },
    {
      "anonymous": false,
      "inputs": [
        {
          "indexed": true,
          "internalType": "string",
          "name": "productId",
          "type": "string"
        },
        {
          "indexed": false,
          "internalType": "address",
          "name": "from",
          "type": "address"
        },
        {
          "indexed": false,
          "internalType": "address",
          "name": "to",
          "type": "address"
        }
      ],
      "name": "ProductTransferred",
      "type": "event"
    },
    {
      "anonymous": false,
      "inputs": [
        {
          "indexed": true,
          "internalType": "string",
          "name": "productId",
          "type": "string"
        },
        {
          "indexed": false,
          "internalType": "address",
          "name": "verifier",
          "type": "address"
        },
        {
          "indexed": false,
          "internalType": "uint256",
          "name": "timestamp",
          "type": "uint256"
        }
      ],
      "name": "ProductVerified",
      "type": "event"
    },
    {
      "inputs": [],
      "name": "admin",
      "outputs": [
        {
          "internalType": "address",
          "name": "",
          "type": "address"
        }
      ],
      "stateMutability": "view",
      "type": "function"
    },
    {
      "inputs": [
        {
          "internalType": "address",
          "name": "_manufacturer",
          "type": "address"
        }
      ],
      "name": "authorizeManufacturer",
      "outputs": [],
      "stateMutability": "nonpayable",
      "type": "function"
    },
    {
      "inputs": [
        {
          "internalType": "address",
          "name": "",
          "type": "address"
        }
      ],
      "name": "authorizedManufacturers",
      "outputs": [
        {
          "internalType": "bool",
          "name": "",
          "type": "bool"
        }
      ],
      "stateMutability": "view",
      "type": "function"
    },
    {
      "inputs": [
        {
          "internalType": "string",
          "name": "_productId",
          "type": "string"
        }
      ],
      "name": "getProduct",
      "outputs": [
        {
          "internalType": "string",
          "name": "productName",
          "type": "string"
        },
        {
          "internalType": "string",
          "name": "brand",
          "type": "string"
        },
        {
          "internalType": "string",
          "name": "batchNumber",
          "type": "string"
        },
        {
          "internalType": "uint256",
          "name": "manufacturingDate",
          "type": "uint256"
        },
        {
          "internalType": "uint256",
          "name": "expiryDate",
          "type": "uint256"
        },
        {
          "internalType": "string",
          "name": "manufacturer",
          "type": "string"
        },
        {
          "internalType": "bool",
          "name": "isAuthentic",
          "type": "bool"
        },
        {
          "internalType": "uint256",
          "name": "verificationCount",
          "type": "uint256"
        }
      ],
      "stateMutability": "view",
      "type": "function"
    },
    {
      "inputs": [
        {
          "internalType": "string",
          "name": "_productId",
          "type": "string"
        }
      ],
      "name": "getVerificationHistory",
      "outputs": [
        {
          "components": [
            {
              "internalType": "address",
              "name": "verifier",
              "type": "address"
            },
            {
              "internalType": "uint256",
              "name": "timestamp",
              "type": "uint256"
            },
            {
              "internalType": "string",
              "name": "location",
              "type": "string"
            }
          ],
          "internalType": "struct CosmeticAuthentication.VerificationLog[]",
          "name": "",
          "type": "tuple[]"
        }
      ],
      "stateMutability": "view",
      "type": "function"
    },
    {
      "inputs": [
        {
          "internalType": "string",
          "name": "_productId",
          "type": "string"
        }
      ],
      "name": "isProductExpired",
      "outputs": [
        {
          "internalType": "bool",
          "name": "",
          "type": "bool"
        }
      ],
      "stateMutability": "view",
      "type": "function"
    },
    {
      "inputs": [
        {
          "internalType": "string",
          "name": "_productId",
          "type": "string"
        }
      ],
      "name": "markAsCounterfeit",
      "outputs": [],
      "stateMutability": "nonpayable",
      "type": "function"
    },
    {
      "inputs": [
        {
          "internalType": "string",
          "name": "",
          "type": "string"
        }
      ],
      "name": "products",
      "outputs": [
        {
          "internalType": "string",
          "name": "productId",
          "type": "string"
        },
        {
          "internalType": "string",
          "name": "productName",
          "type": "string"
        },
        {
          "internalType": "string",
          "name": "brand",
          "type": "string"
        },
        {
          "internalType": "string",
          "name": "batchNumber",
          "type": "string"
        },
        {
          "internalType": "uint256",
          "name": "manufacturingDate",
          "type": "uint256"
        },
        {
          "internalType": "uint256",
          "name": "expiryDate",
          "type": "uint256"
        },
        {
          "internalType": "string",
          "name": "manufacturer",
          "type": "string"
        },
        {
          "internalType": "address",
          "name": "owner",
          "type": "address"
        },
        {
          "internalType": "bool",
          "name": "isAuthentic",
          "type": "bool"
        },
        {
          "internalType": "uint256",
          "name": "verificationCount",
          "type": "uint256"
        },
        {
          "internalType": "uint256",
          "name": "createdAt",
          "type": "uint256"
        }
      ],
      "stateMutability": "view",
      "type": "function"
    },
    {
      "inputs": [
        {
          "internalType": "string",
          "name": "_productId",
          "type": "string"
        },
        {
          "internalType": "string",
          "name": "_productName",
          "type": "string"
        },
        {
          "internalType": "string",
          "name": "_brand",
          "type": "string"
        },
        {
          "internalType": "string",
          "name": "_batchNumber",
          "type": "string"
        },
        {
          "internalType": "uint256",
          "name": "_manufacturingDate",
          "type": "uint256"
        },
        {
          "internalType": "uint256",
          "name": "_expiryDate",
          "type": "uint256"
        },
        {
          "internalType": "string",
          "name": "_manufacturer",
          "type": "string"
        }
      ],
      "name": "registerProduct",
      "outputs": [],
      "stateMutability": "nonpayable",
      "type": "function"
    },
    {
      "inputs": [
        {
          "internalType": "address",
          "name": "_manufacturer",
          "type": "address"
        }
      ],
      "name": "revokeManufacturer",
      "outputs": [],
      "stateMutability": "nonpayable",
      "type": "function"
    },
    {
      "inputs": [],
      "name": "totalProducts",
      "outputs": [
        {
          "internalType": "uint256",
          "name": "",
          "type": "uint256"
        }
      ],
      "stateMutability": "view",
      "type": "function"
    },
    {
      "inputs": [
        {
          "internalType": "string",
          "name": "_productId",
          "type": "string"
        },
        {
          "internalType": "address",
          "name": "_newOwner",
          "type": "address"
        }
      ],
      "name": "transferProduct",
      "outputs": [],
      "stateMutability": "nonpayable",
      "type": "function"
    },
    {
      "inputs": [
        {
          "internalType": "string",
          "name": "",
          "type": "string"
        },
        {
          "internalType": "uint256",
          "name": "",
          "type": "uint256"
        }
      ],
      "name": "verificationHistory",
      "outputs": [
        {
          "internalType": "address",
          "name": "verifier",
          "type": "address"
        },
        {
          "internalType": "uint256",
          "name": "timestamp",
          "type": "uint256"
        },
        {
          "internalType": "string",
          "name": "location",
          "type": "string"
        }
      ],
      "stateMutability": "view",
      "type": "function"
    },
    {
      "inputs": [
        {
          "internalType": "string",
          "name": "_productId",
          "type": "string"
        },
        {
          "internalType": "string",
          "name": "_location",
          "type": "string"
        }
      ],
      "name": "verifyProduct",
      "outputs": [
        {
          "internalType": "bool",
          "name": "",
          "type": "bool"
        }
      ],
      "stateMutability": "nonpayable",
      "type": "function"
    }
  ],
  "bytecode": "0x6080604052348015600e575f5ffd5b50600380546001600160a01b031916339081179091555f908152600260205260409020805460ff19166001179055611aa8806100495f395ff3fe608060405234801561000f575f5ffd5b50600436106100e5575f3560e01c806368111cce11610088578063a624fe3011610063578063a624fe3014610200578063cff3c8f214610213578063d96d97a514610235578063f851a44014610255575f5ffd5b806368111cce146101af57806390afcb9d146101d65780639b9d326d146101e9575f5ffd5b806324b04245116100c357806324b042451461014457806341bd055c1461017657806351cb74ac1461018957806352f5dab61461019c575f5ffd5b80630186a423146100e9578063089e1b391461011c57806318b4523814610131575b5f5ffd5b6100fc6100f73660046113f8565b610280565b6040516101139b9a9998979695949392919061145f565b60405180910390f35b61012f61012a36600461151f565b61058a565b005b61012f61013f36600461151f565b610617565b61016661015236600461151f565b60026020525f908152604090205460ff1681565b6040519015158152602001610113565b6101666101843660046113f8565b610691565b61016661019736600461153f565b610705565b61012f6101aa3660046113f8565b610875565b6101c26101bd3660046113f8565b610927565b6040516101139897969594939291906115a2565b61012f6101e4366004611614565b610ce1565b6101f260045481565b604051908152602001610113565b61012f61020e36600461165e565b610e6e565b61022661022136600461174e565b61114f565b6040516101139392919061178f565b6102486102433660046113f8565b611230565b60405161011391906117be565b600354610268906001600160a01b031681565b6040516001600160a01b039091168152602001610113565b80516020818301810180515f825292820191909301209152805481906102a59061184b565b80601f01602080910402602001604051908101604052809291908181526020018280546102d19061184b565b801561031c5780601f106102f35761010080835404028352916020019161031c565b820191905f5260205f20905b8154815290600101906020018083116102ff57829003601f168201915b5050505050908060010180546103319061184b565b80601f016020809104026020016040519081016040528092919081815260200182805461035d9061184b565b80156103a85780601f1061037f576101008083540402835291602001916103a8565b820191905f5260205f20905b81548152906001019060200180831161038b57829003601f168201915b5050505050908060020180546103bd9061184b565b80601f01602080910402602001604051908101604052809291908181526020018280546103e99061184b565b80156104345780601f1061040b57610100808354040283529160200191610434565b820191905f5260205f20905b81548152906001019060200180831161041757829003601f168201915b5050505050908060030180546104499061184b565b80601f01602080910402602001604051908101604052809291908181526020018280546104759061184b565b80156104c05780601f10610497576101008083540402835291602001916104c0565b820191905f5260205f20905b8154815290600101906020018083116104a357829003601f168201915b5050505050908060040154908060050154908060060180546104e19061184b565b80601f016020809104026020016040519081016040528092919081815260200182805461050d9061184b565b80156105585780601f1061052f57610100808354040283529160200191610558565b820191905f5260205f20905b81548152906001019060200180831161053b57829003601f168201915b505050506007830154600884015460099094015492936001600160a01b03821693600160a01b90920460ff169250908b565b6003546001600160a01b031633146105bd5760405162461bcd60e51b81526004016105b490611883565b60405180910390fd5b6001600160a01b0381165f81815260026020908152604091829020805460ff1916600117905590519182527f06254beaf84c859845ea388376dff86c215438fa7cb62de9f3b40aae51571ec291015b60405180910390a150565b6003546001600160a01b031633146106415760405162461bcd60e51b81526004016105b490611883565b6001600160a01b0381165f81815260026020908152604091829020805460ff1916905590519182527fd45d196334d0d06ea301cc8b965da9c0afd7dd9bd61ebcf127f0575c45e7b46b910161060c565b5f5f5f836040516106a291906118c5565b90815260405190819003602001902080546106bc9061184b565b9050116106db5760405162461bcd60e51b81526004016105b4906118db565b5f826040516106ea91906118c5565b90815260200160405180910390206005015442119050919050565b5f5f5f8460405161071691906118c5565b90815260405190819003602001902080546107309061184b565b90501161074f5760405162461bcd60e51b81526004016105b4906118db565b5f5f8460405161075f91906118c5565b9081526040519081900360200190206008810180549192505f6107818361190b565b919050555060018460405161079691906118c5565b9081526040805160209281900383018120606082018352338252428483019081529282018781528154600180820184555f93845295909220835160039093020180546001600160a01b0319166001600160a01b0390931692909217825592519381019390935590519091906002820190610810908261197b565b5050508360405161082191906118c5565b60408051918290038220338352426020840152917f1eedac193bfc50544c5cb632f19e7f8ea3717d16874b0ca1ce09b83aac2773fc910160405180910390a260070154600160a01b900460ff169392505050565b6003546001600160a01b0316331461089f5760405162461bcd60e51b81526004016105b490611883565b5f5f826040516108af91906118c5565b90815260405190819003602001902080546108c99061184b565b9050116108e85760405162461bcd60e51b81526004016105b4906118db565b5f5f826040516108f891906118c5565b9081526040519081900360200190206007018054911515600160a01b0260ff60a01b1990921691909117905550565b60608060605f5f60605f5f5f5f8a60405161094291906118c5565b9081526020016040518091039020604051806101600160405290815f8201805461096b9061184b565b80601f01602080910402602001604051908101604052809291908181526020018280546109979061184b565b80156109e25780601f106109b9576101008083540402835291602001916109e2565b820191905f5260205f20905b8154815290600101906020018083116109c557829003601f168201915b505050505081526020016001820180546109fb9061184b565b80601f0160208091040260200160405190810160405280929190818152602001828054610a279061184b565b8015610a725780601f10610a4957610100808354040283529160200191610a72565b820191905f5260205f20905b815481529060010190602001808311610a5557829003601f168201915b50505050508152602001600282018054610a8b9061184b565b80601f0160208091040260200160405190810160405280929190818152602001828054610ab79061184b565b8015610b025780601f10610ad957610100808354040283529160200191610b02565b820191905f5260205f20905b815481529060010190602001808311610ae557829003601f168201915b50505050508152602001600382018054610b1b9061184b565b80601f0160208091040260200160405190810160405280929190818152602001828054610b479061184b565b8015610b925780601f10610b6957610100808354040283529160200191610b92565b820191905f5260205f20905b815481529060010190602001808311610b7557829003601f168201915b505050505081526020016004820154815260200160058201548152602001600682018054610bbf9061184b565b80601f0160208091040260200160405190810160405280929190818152602001828054610beb9061184b565b8015610c365780601f10610c0d57610100808354040283529160200191610c36565b820191905f5260205f20905b815481529060010190602001808311610c1957829003601f168201915b505050918352505060078201546001600160a01b0381166020830152600160a01b900460ff161515604082015260088201546060820152600990910154608090910152805151909150610c9b5760405162461bcd60e51b81526004016105b4906118db565b80602001518160400151826060015183608001518460a001518560c001518661010001518761012001519850985098509850985098509850985050919395975091939597565b5f5f83604051610cf191906118c5565b9081526040519081900360200190208054610d0b9061184b565b905011610d2a5760405162461bcd60e51b81526004016105b4906118db565b336001600160a01b03165f83604051610d4391906118c5565b908152604051908190036020019020600701546001600160a01b031614610da45760405162461bcd60e51b81526020600482015260156024820152742737ba103a343290383937b23ab1ba1037bbb732b960591b60448201526064016105b4565b5f5f83604051610db491906118c5565b908152604051908190036020018120600701546001600160a01b0316915082905f90610de19086906118c5565b90815260405190819003602001812060070180546001600160a01b03939093166001600160a01b031990931692909217909155610e1f9084906118c5565b604080519182900382206001600160a01b03808516845285166020840152917f9b59ff059d6c04ad6bc0611444d658a2e1c70a894824b83b040b2aad6e14f013910160405180910390a2505050565b335f9081526002602052604090205460ff1680610e9557506003546001600160a01b031633145b610ee15760405162461bcd60e51b815260206004820152601b60248201527f4e6f7420617574686f72697a6564206d616e756661637475726572000000000060448201526064016105b4565b5f87604051610ef091906118c5565b9081526040519081900360200190208054610f0a9061184b565b159050610f525760405162461bcd60e51b815260206004820152601660248201527550726f6475637420616c72656164792065786973747360501b60448201526064016105b4565b5f875111610fa25760405162461bcd60e51b815260206004820152601a60248201527f50726f647563742049442063616e6e6f7420626520656d70747900000000000060448201526064016105b4565b604051806101600160405280888152602001878152602001868152602001858152602001848152602001838152602001828152602001336001600160a01b031681526020016001151581526020015f8152602001428152505f8860405161100991906118c5565b90815260405190819003602001902081518190611026908261197b565b506020820151600182019061103b908261197b565b5060408201516002820190611050908261197b565b5060608201516003820190611065908261197b565b506080820151600482015560a0820151600582015560c0820151600682019061108e908261197b565b5060e08201516007820180546101008501511515600160a01b026001600160a81b03199091166001600160a01b039093169290921791909117905561012082015160088201556101409091015160099091015560048054905f6110f08361190b565b91905055508660405161110391906118c5565b60405180910390207f60268ef7a6e13d516f1f5f316c8b0000b39c8401d377d0c660fdbef8f53779d787873360405161113e93929190611a35565b60405180910390a250505050505050565b81516020818401810180516001825292820191850191909120919052805482908110611179575f80fd5b5f9182526020909120600390910201805460018201546002830180546001600160a01b039093169550909350906111af9061184b565b80601f01602080910402602001604051908101604052809291908181526020018280546111db9061184b565b80156112265780601f106111fd57610100808354040283529160200191611226565b820191905f5260205f20905b81548152906001019060200180831161120957829003601f168201915b5050505050905083565b606060018260405161124291906118c5565b9081526020016040518091039020805480602002602001604051908101604052809291908181526020015f905b82821015611350575f848152602090819020604080516060810182526003860290920180546001600160a01b03168352600181015493830193909352600283018054929392918401916112c19061184b565b80601f01602080910402602001604051908101604052809291908181526020018280546112ed9061184b565b80156113385780601f1061130f57610100808354040283529160200191611338565b820191905f5260205f20905b81548152906001019060200180831161131b57829003601f168201915b5050505050815250508152602001906001019061126f565b505050509050919050565b634e487b7160e01b5f52604160045260245ffd5b5f82601f83011261137e575f5ffd5b81356001600160401b038111156113975761139761135b565b604051601f8201601f19908116603f011681016001600160401b03811182821017156113c5576113c561135b565b6040528181528382016020018510156113dc575f5ffd5b816020850160208301375f918101602001919091529392505050565b5f60208284031215611408575f5ffd5b81356001600160401b0381111561141d575f5ffd5b6114298482850161136f565b949350505050565b5f81518084528060208401602086015e5f602082860101526020601f19601f83011685010191505092915050565b61016081525f61147361016083018e611431565b8281036020840152611485818e611431565b90508281036040840152611499818d611431565b905082810360608401526114ad818c611431565b90508960808401528860a084015282810360c08401526114cd8189611431565b6001600160a01b039790971660e0840152505092151561010084015261012083019190915261014090910152979650505050505050565b80356001600160a01b038116811461151a575f5ffd5b919050565b5f6020828403121561152f575f5ffd5b61153882611504565b9392505050565b5f5f60408385031215611550575f5ffd5b82356001600160401b03811115611565575f5ffd5b6115718582860161136f565b92505060208301356001600160401b0381111561158c575f5ffd5b6115988582860161136f565b9150509250929050565b61010081525f6115b661010083018b611431565b82810360208401526115c8818b611431565b905082810360408401526115dc818a611431565b905087606084015286608084015282810360a08401526115fc8187611431565b94151560c0840152505060e001529695505050505050565b5f5f60408385031215611625575f5ffd5b82356001600160401b0381111561163a575f5ffd5b6116468582860161136f565b92505061165560208401611504565b90509250929050565b5f5f5f5f5f5f5f60e0888a031215611674575f5ffd5b87356001600160401b03811115611689575f5ffd5b6116958a828b0161136f565b97505060208801356001600160401b038111156116b0575f5ffd5b6116bc8a828b0161136f565b96505060408801356001600160401b038111156116d7575f5ffd5b6116e38a828b0161136f565b95505060608801356001600160401b038111156116fe575f5ffd5b61170a8a828b0161136f565b9450506080880135925060a0880135915060c08801356001600160401b03811115611733575f5ffd5b61173f8a828b0161136f565b91505092959891949750929550565b5f5f6040838503121561175f575f5ffd5b82356001600160401b03811115611774575f5ffd5b6117808582860161136f565b95602094909401359450505050565b60018060a01b0384168152826020820152606060408201525f6117b56060830184611431565b95945050505050565b5f602082016020835280845180835260408501915060408160051b8601019250602086015f5b8281101561183f57868503603f19018452815180516001600160a01b031686526020808201519087015260409081015160609187018290529061182990870182611431565b95505060209384019391909101906001016117e4565b50929695505050505050565b600181811c9082168061185f57607f821691505b60208210810361187d57634e487b7160e01b5f52602260045260245ffd5b50919050565b60208082526022908201527f4f6e6c792061646d696e2063616e20706572666f726d2074686973206163746960408201526137b760f11b606082015260800190565b5f82518060208501845e5f920191825250919050565b602080825260169082015275141c9bd91d58dd08191bd95cc81b9bdd08195e1a5cdd60521b604082015260600190565b5f6001820161192857634e487b7160e01b5f52601160045260245ffd5b5060010190565b601f82111561197657805f5260205f20601f840160051c810160208510156119545750805b601f840160051c820191505b81811015611973575f8155600101611960565b50505b505050565b81516001600160401b038111156119945761199461135b565b6119a8816119a2845461184b565b8461192f565b6020601f8211600181146119da575f83156119c35750848201515b5f19600385901b1c1916600184901b178455611973565b5f84815260208120601f198516915b82811015611a0957878501518255602094850194600190920191016119e9565b5084821015611a2657868401515f19600387901b60f8161c191681555b50505050600190811b01905550565b606081525f611a476060830186611431565b8281036020840152611a598186611431565b91505060018060a01b038316604083015294935050505056fea2646970667358221220d765a42bb379ec71e3b3ecfc210385dd9e703b133a8a852fa515d117f36c311164736f6c634300081c0033",
  "linkReferences": {},
  "deployedLinkReferences": {},
  "immutableReferences": {},
  "inputSourceName": "project/contracts/CosmeticAuthentication.sol",
  "buildInfoId": "solc-0_8_28-11bc7d9057bf99e8914719601e93c3fb452fd9e8"
}